:100000000C9434000C9449000C9449000C94490061
:100010000C9449000C9449000C9449000C9449003C
:100020000C9449000C9449000C9449000C9449002C
:100030000C9449000C9449000C9449000C9449001C
:100040000C9449000C9449000C9449000C9449000C
:100050000C9449000C9449000C9449000C944900FC
:100060000C9449000C94490011241FBECFEFD8E036
:10007000DEBFCDBF11E0A0E0B1E0ECEEF1E002C0E8
:1000800005900D92AE30B107D9F70E94E8000C94AC
:10009000F4000C94000095B19F70282F207F922BC4
:1000A00095B95B985A9A35E03A95F1F700005A985D
:1000B000EFE1F3E03197F1F700C0000025B12F70B8
:1000C000F0E18F9FC0011124822B85B95A9A35E047
:1000D0003A95F1F700005A988FE39FE10197F1F705
:1000E00000C00000089595B19F70282F207F922BAB
:1000F00095B95B9A5A9A35E03A95F1F700005A980B
:10010000EFE1F3E03197F1F700C0000025B12F7067
:10011000F0E18F9FC0011124822B85B95A9A35E0F6
:100120003A95F1F700005A988AE08A95F1F700C0F5
:1001300008958FEF84B98AB18C608AB98FE59AEE01
:100140000197F1F700C000005B985A9883E30E9482
:100150004B0082E30E944B0088E20E944B008EE03D
:100160000E944B0081E00E944B008FE39FE10197CA
:10017000F1F700C0000008950F931F93CF93FC0187
:1001800080818823A1F08F01C0E00E9473002FEFCF
:1001900083EC99E0215080409040E1F700C00000DE
:1001A000CF5FF801EC0FF11D80818111EECFCF916F
:1001B0001F910F91089581E00E944B008FE39FE112
:1001C0000197F1F700C0000080E80E944B000895FD
:1001D0000E94990080E091E00E94BC000E94DB0038
:0C01E00081E40E947300FCCFF894FFCF74
:0E01EC0074686520776F726C64206973000080
:00000001FF
