
lcd_1.elf:     file format elf32-avr

Sections:
Idx Name          Size      VMA       LMA       File off  Algn
  0 .data         0000000c  00800100  000001ac  00000220  2**0
                  CONTENTS, ALLOC, LOAD, DATA
  1 .text         000001ac  00000000  00000000  00000074  2**1
                  CONTENTS, ALLOC, LOAD, READONLY, CODE
  2 .comment      00000030  00000000  00000000  0000022c  2**0
                  CONTENTS, READONLY
  3 .note.gnu.avr.deviceinfo 00000040  00000000  00000000  0000025c  2**2
                  CONTENTS, READONLY
  4 .debug_aranges 00000050  00000000  00000000  0000029c  2**0
                  CONTENTS, READONLY, DEBUGGING
  5 .debug_info   00000ba2  00000000  00000000  000002ec  2**0
                  CONTENTS, READONLY, DEBUGGING
  6 .debug_abbrev 0000073e  00000000  00000000  00000e8e  2**0
                  CONTENTS, READONLY, DEBUGGING
  7 .debug_line   0000040b  00000000  00000000  000015cc  2**0
                  CONTENTS, READONLY, DEBUGGING
  8 .debug_frame  0000009c  00000000  00000000  000019d8  2**2
                  CONTENTS, READONLY, DEBUGGING
  9 .debug_str    000003b9  00000000  00000000  00001a74  2**0
                  CONTENTS, READONLY, DEBUGGING
 10 .debug_loc    000004e3  00000000  00000000  00001e2d  2**0
                  CONTENTS, READONLY, DEBUGGING
 11 .debug_ranges 00000040  00000000  00000000  00002310  2**0
                  CONTENTS, READONLY, DEBUGGING

Disassembly of section .text:

00000000 <__vectors>:
   0:	0c 94 34 00 	jmp	0x68	; 0x68 <__ctors_end>
   4:	0c 94 49 00 	jmp	0x92	; 0x92 <__bad_interrupt>
   8:	0c 94 49 00 	jmp	0x92	; 0x92 <__bad_interrupt>
   c:	0c 94 49 00 	jmp	0x92	; 0x92 <__bad_interrupt>
  10:	0c 94 49 00 	jmp	0x92	; 0x92 <__bad_interrupt>
  14:	0c 94 49 00 	jmp	0x92	; 0x92 <__bad_interrupt>
  18:	0c 94 49 00 	jmp	0x92	; 0x92 <__bad_interrupt>
  1c:	0c 94 49 00 	jmp	0x92	; 0x92 <__bad_interrupt>
  20:	0c 94 49 00 	jmp	0x92	; 0x92 <__bad_interrupt>
  24:	0c 94 49 00 	jmp	0x92	; 0x92 <__bad_interrupt>
  28:	0c 94 49 00 	jmp	0x92	; 0x92 <__bad_interrupt>
  2c:	0c 94 49 00 	jmp	0x92	; 0x92 <__bad_interrupt>
  30:	0c 94 49 00 	jmp	0x92	; 0x92 <__bad_interrupt>
  34:	0c 94 49 00 	jmp	0x92	; 0x92 <__bad_interrupt>
  38:	0c 94 49 00 	jmp	0x92	; 0x92 <__bad_interrupt>
  3c:	0c 94 49 00 	jmp	0x92	; 0x92 <__bad_interrupt>
  40:	0c 94 49 00 	jmp	0x92	; 0x92 <__bad_interrupt>
  44:	0c 94 49 00 	jmp	0x92	; 0x92 <__bad_interrupt>
  48:	0c 94 49 00 	jmp	0x92	; 0x92 <__bad_interrupt>
  4c:	0c 94 49 00 	jmp	0x92	; 0x92 <__bad_interrupt>
  50:	0c 94 49 00 	jmp	0x92	; 0x92 <__bad_interrupt>
  54:	0c 94 49 00 	jmp	0x92	; 0x92 <__bad_interrupt>
  58:	0c 94 49 00 	jmp	0x92	; 0x92 <__bad_interrupt>
  5c:	0c 94 49 00 	jmp	0x92	; 0x92 <__bad_interrupt>
  60:	0c 94 49 00 	jmp	0x92	; 0x92 <__bad_interrupt>
  64:	0c 94 49 00 	jmp	0x92	; 0x92 <__bad_interrupt>

00000068 <__ctors_end>:
  68:	11 24       	eor	r1, r1
  6a:	1f be       	out	0x3f, r1	; 63
  6c:	cf ef       	ldi	r28, 0xFF	; 255
  6e:	d8 e0       	ldi	r29, 0x08	; 8
  70:	de bf       	out	0x3e, r29	; 62
  72:	cd bf       	out	0x3d, r28	; 61

00000074 <__do_copy_data>:
  74:	11 e0       	ldi	r17, 0x01	; 1
  76:	a0 e0       	ldi	r26, 0x00	; 0
  78:	b1 e0       	ldi	r27, 0x01	; 1
  7a:	ec ea       	ldi	r30, 0xAC	; 172
  7c:	f1 e0       	ldi	r31, 0x01	; 1
  7e:	02 c0       	rjmp	.+4      	; 0x84 <__do_copy_data+0x10>
  80:	05 90       	lpm	r0, Z+
  82:	0d 92       	st	X+, r0
  84:	ac 30       	cpi	r26, 0x0C	; 12
  86:	b1 07       	cpc	r27, r17
  88:	d9 f7       	brne	.-10     	; 0x80 <__do_copy_data+0xc>
  8a:	0e 94 c6 00 	call	0x18c	; 0x18c <main>
  8e:	0c 94 d4 00 	jmp	0x1a8	; 0x1a8 <_exit>

00000092 <__bad_interrupt>:
  92:	0c 94 00 00 	jmp	0	; 0x0 <__vectors>

00000096 <send_cmd>:
}
void lcd_clear()
{
	send_cmd(0x01);
	_delay_ms(2);
	send_cmd(0x80);
  96:	9b b1       	in	r25, 0x0b	; 11
  98:	9f 70       	andi	r25, 0x0F	; 15
  9a:	28 2f       	mov	r18, r24
  9c:	20 7f       	andi	r18, 0xF0	; 240
  9e:	92 2b       	or	r25, r18
  a0:	9b b9       	out	0x0b, r25	; 11
  a2:	5a 98       	cbi	0x0b, 2	; 11
  a4:	5b 9a       	sbi	0x0b, 3	; 11
  a6:	32 e0       	ldi	r19, 0x02	; 2
  a8:	3a 95       	dec	r19
  aa:	f1 f7       	brne	.-4      	; 0xa8 <send_cmd+0x12>
  ac:	00 c0       	rjmp	.+0      	; 0xae <send_cmd+0x18>
  ae:	5b 98       	cbi	0x0b, 3	; 11
  b0:	ef e8       	ldi	r30, 0x8F	; 143
  b2:	f1 e0       	ldi	r31, 0x01	; 1
  b4:	31 97       	sbiw	r30, 0x01	; 1
  b6:	f1 f7       	brne	.-4      	; 0xb4 <send_cmd+0x1e>
  b8:	00 c0       	rjmp	.+0      	; 0xba <send_cmd+0x24>
  ba:	00 00       	nop
  bc:	2b b1       	in	r18, 0x0b	; 11
  be:	2f 70       	andi	r18, 0x0F	; 15
  c0:	f0 e1       	ldi	r31, 0x10	; 16
  c2:	8f 9f       	mul	r24, r31
  c4:	c0 01       	movw	r24, r0
  c6:	11 24       	eor	r1, r1
  c8:	82 2b       	or	r24, r18
  ca:	8b b9       	out	0x0b, r24	; 11
  cc:	5b 9a       	sbi	0x0b, 3	; 11
  ce:	32 e0       	ldi	r19, 0x02	; 2
  d0:	3a 95       	dec	r19
  d2:	f1 f7       	brne	.-4      	; 0xd0 <send_cmd+0x3a>
  d4:	00 c0       	rjmp	.+0      	; 0xd6 <send_cmd+0x40>
  d6:	5b 98       	cbi	0x0b, 3	; 11
  d8:	8f e9       	ldi	r24, 0x9F	; 159
  da:	9f e0       	ldi	r25, 0x0F	; 15
  dc:	01 97       	sbiw	r24, 0x01	; 1
  de:	f1 f7       	brne	.-4      	; 0xdc <send_cmd+0x46>
  e0:	00 c0       	rjmp	.+0      	; 0xe2 <send_cmd+0x4c>
  e2:	00 00       	nop
  e4:	08 95       	ret

000000e6 <send_data>:
  e6:	9b b1       	in	r25, 0x0b	; 11
  e8:	9f 70       	andi	r25, 0x0F	; 15
  ea:	28 2f       	mov	r18, r24
  ec:	20 7f       	andi	r18, 0xF0	; 240
  ee:	92 2b       	or	r25, r18
  f0:	9b b9       	out	0x0b, r25	; 11
  f2:	5a 9a       	sbi	0x0b, 2	; 11
  f4:	5b 9a       	sbi	0x0b, 3	; 11
  f6:	32 e0       	ldi	r19, 0x02	; 2
  f8:	3a 95       	dec	r19
  fa:	f1 f7       	brne	.-4      	; 0xf8 <send_data+0x12>
  fc:	00 c0       	rjmp	.+0      	; 0xfe <send_data+0x18>
  fe:	5b 98       	cbi	0x0b, 3	; 11
 100:	ef e8       	ldi	r30, 0x8F	; 143
 102:	f1 e0       	ldi	r31, 0x01	; 1
 104:	31 97       	sbiw	r30, 0x01	; 1
 106:	f1 f7       	brne	.-4      	; 0x104 <send_data+0x1e>
 108:	00 c0       	rjmp	.+0      	; 0x10a <send_data+0x24>
 10a:	00 00       	nop
 10c:	2b b1       	in	r18, 0x0b	; 11
 10e:	2f 70       	andi	r18, 0x0F	; 15
 110:	f0 e1       	ldi	r31, 0x10	; 16
 112:	8f 9f       	mul	r24, r31
 114:	c0 01       	movw	r24, r0
 116:	11 24       	eor	r1, r1
 118:	82 2b       	or	r24, r18
 11a:	8b b9       	out	0x0b, r24	; 11
 11c:	5b 9a       	sbi	0x0b, 3	; 11
 11e:	32 e0       	ldi	r19, 0x02	; 2
 120:	3a 95       	dec	r19
 122:	f1 f7       	brne	.-4      	; 0x120 <send_data+0x3a>
 124:	00 c0       	rjmp	.+0      	; 0x126 <send_data+0x40>
 126:	5b 98       	cbi	0x0b, 3	; 11
 128:	85 e0       	ldi	r24, 0x05	; 5
 12a:	8a 95       	dec	r24
 12c:	f1 f7       	brne	.-4      	; 0x12a <send_data+0x44>
 12e:	00 00       	nop
 130:	08 95       	ret

00000132 <lcd_intil>:
 132:	8f ef       	ldi	r24, 0xFF	; 255
 134:	8a b9       	out	0x0a, r24	; 10
 136:	8f e3       	ldi	r24, 0x3F	; 63
 138:	9c e9       	ldi	r25, 0x9C	; 156
 13a:	01 97       	sbiw	r24, 0x01	; 1
 13c:	f1 f7       	brne	.-4      	; 0x13a <lcd_intil+0x8>
 13e:	00 c0       	rjmp	.+0      	; 0x140 <lcd_intil+0xe>
 140:	00 00       	nop
 142:	82 e0       	ldi	r24, 0x02	; 2
 144:	0e 94 4b 00 	call	0x96	; 0x96 <send_cmd>
 148:	88 e2       	ldi	r24, 0x28	; 40
 14a:	0e 94 4b 00 	call	0x96	; 0x96 <send_cmd>
 14e:	8c e0       	ldi	r24, 0x0C	; 12
 150:	0e 94 4b 00 	call	0x96	; 0x96 <send_cmd>
 154:	86 e0       	ldi	r24, 0x06	; 6
 156:	0e 94 4b 00 	call	0x96	; 0x96 <send_cmd>
 15a:	81 e0       	ldi	r24, 0x01	; 1
 15c:	0e 94 4b 00 	call	0x96	; 0x96 <send_cmd>
 160:	8f e9       	ldi	r24, 0x9F	; 159
 162:	9f e0       	ldi	r25, 0x0F	; 15
 164:	01 97       	sbiw	r24, 0x01	; 1
 166:	f1 f7       	brne	.-4      	; 0x164 <lcd_intil+0x32>
 168:	00 c0       	rjmp	.+0      	; 0x16a <lcd_intil+0x38>
 16a:	00 00       	nop
 16c:	08 95       	ret

0000016e <lcd_Srint>:
 16e:	cf 93       	push	r28
 170:	df 93       	push	r29
 172:	ec 01       	movw	r28, r24
 174:	88 81       	ld	r24, Y
 176:	88 23       	and	r24, r24
 178:	31 f0       	breq	.+12     	; 0x186 <lcd_Srint+0x18>
 17a:	21 96       	adiw	r28, 0x01	; 1
 17c:	0e 94 73 00 	call	0xe6	; 0xe6 <send_data>
 180:	89 91       	ld	r24, Y+
 182:	81 11       	cpse	r24, r1
 184:	fb cf       	rjmp	.-10     	; 0x17c <lcd_Srint+0xe>
 186:	df 91       	pop	r29
 188:	cf 91       	pop	r28
 18a:	08 95       	ret

0000018c <main>:
}

int main(void)
{
	lcd_intil();
 18c:	0e 94 99 00 	call	0x132	; 0x132 <lcd_intil>
	lcd_Srint("theworldis");
 190:	80 e0       	ldi	r24, 0x00	; 0
 192:	91 e0       	ldi	r25, 0x01	; 1
 194:	0e 94 b7 00 	call	0x16e	; 0x16e <lcd_Srint>
	send_cmd(0xC0);
 198:	80 ec       	ldi	r24, 0xC0	; 192
 19a:	0e 94 4b 00 	call	0x96	; 0x96 <send_cmd>
	lcd_Srint("theworldis");
 19e:	80 e0       	ldi	r24, 0x00	; 0
 1a0:	91 e0       	ldi	r25, 0x01	; 1
 1a2:	0e 94 b7 00 	call	0x16e	; 0x16e <lcd_Srint>
 1a6:	ff cf       	rjmp	.-2      	; 0x1a6 <main+0x1a>

000001a8 <_exit>:
 1a8:	f8 94       	cli

000001aa <__stop_program>:
 1aa:	ff cf       	rjmp	.-2      	; 0x1aa <__stop_program>
