:100000000C9434000C9449000C9449000C94490061
:100010000C9449000C9449000C9449000C9449003C
:100020000C9449000C9449000C9449000C9449002C
:100030000C9449000C9449000C9449000C9449001C
:100040000C9449000C9449000C9449000C9449000C
:100050000C9449000C9449000C9449000C944900FC
:100060000C9449000C94490011241FBECFEFD8E036
:10007000DEBFCDBF11E0A0E0B1E0E0E1F1E002C001
:1000800005900D92AC30B107D9F70E945B000C943B
:1000900086000C9400001092C50087E68093C4008F
:1000A000E1ECF0E0808188608083E2ECF0E0808128
:1000B000866280830895CF93DF93CDB7DEB72B9709
:1000C0000FB6F894DEBF0FBECDBF0E944B008BE091
:1000D000E0E0F1E0DE01119601900D928A95E1F7E2
:1000E0009E01245F3F4FA6ECB0E0FE013196819166
:1000F0008C934FEF81EE94E0415080409040E1F7C7
:1001000000C00000E217F30791F7EFCFF894FFCF9C
:0C01100068656C6C6F20776F726C640087
:00000001FF
