:100000000C9434000C943E000C943E000C943E0082
:100010000C943E000C943E000C943E000C943E0068
:100020000C943E000C943E000C943E000C943E0058
:100030000C943E000C943E000C943E000C943E0048
:100040000C943E000C943E000C943E000C943E0038
:100050000C943E000C943E000C943E000C943E0028
:100060000C943E000C943E0011241FBECFEFD8E04C
:10007000DEBFCDBF0E9440000C9467000C940000CE
:10008000579A55985D9A20E030E040E050E0F0E06B
:10009000E0E071E060E001C09C0189B1807290E015
:1000A000AFEFB2E5C7E0A150B040C040E1F700C0FB
:1000B0000000232B89F7009779F7452B21F45F9AED
:1000C000472F562FE9CF5F984F2F5E2FE5CFF8943B
:0200D000FFCF60
:00000001FF
